:020000021000EC
:1000000000480020BD36010029800200A936010009
:10001000A9360100A9360100A93601000000000040
:100020000000000000000000000000008137010017
:10003000A93601000000000021370100A9360100A7
:100040004D3901008D0202004D3901004D3901008A
:100050004D3901004D3901004D3901004D39010084
:100060004D3901004D3901004D3901004D39010074
:100070004D3901004D3901004D3901004D39010064
:100080004D3901004D3901004D3901004D39010054
:100090004D3901004D3901004D3901004D39010044
:1000A0004D3901004D3901004D3901004D39010034
:1000B0004D3901004D3901004D3901004D39010024
:1000C0004D3901004D3901004D3901004D39010014
:1000D0004D3901004D3901004D3901004D39010004
:1000E0004D3901004D3901004D3901004D390100F4
:1000F0004D3901004D3901004D3901004D390100E4
:1001000081F0004102E000BF83F0004330B54FEAC8
:1001100041044FEA430594EA050F08BF90EA020F35
:100120001FBF54EA000C55EA020C7FEA645C7FEAC8
:10013000655C00F0E2804FEA5454D4EB5555B8BFEB
:100140006D420CDD2C4480EA020281EA030382EA5C
:10015000000083EA010180EA020281EA0303362DEE
:1001600088BF30BD11F0004F4FEA01314FF4801CC1
:100170004CEA113102D0404261EB410113F0004FD3
:100180004FEA03334CEA133302D0524263EB43038A
:1001900094EA050F00F0A780A4F10104D5F1200E28
:1001A0000DDB02FA0EFC22FA05F2801841F1000183
:1001B00003FA0EF2801843FA05F359410EE0A5F157
:1001C00020050EF1200E012A03FA0EFC28BF4CF088
:1001D000020C43FA05F3C01851EBE37101F000453E
:1001E00007D54FF0000EDCF1000C7EEB00006EEB4B
:1001F0000101B1F5801F1BD3B1F5001F0CD34908D5
:100200005FEA30004FEA3C0C04F101044FEA44522B
:1002100012F5800F80F09A80BCF1004F08BF5FEAB2
:10022000500C50F1000041EB045141EA050130BD92
:100230005FEA4C0C404141EB0101013C28BFB1F5A4
:10024000801FE9D291F0000F04BF01460020B1FAEF
:1002500081F308BF2033A3F10B03B3F120020CDAC2
:100260000C3208DD02F1140CC2F10C0201FA0CF0A0
:1002700021FA02F10CE002F11402D8BFC2F1200C05
:1002800001FA02F120FA0CFCDCBF41EA0C019040BB
:10029000E41AA2BF01EB0451294330BD6FEA040404
:1002A0001F3C1CDA0C340EDC04F11404C4F12002EF
:1002B00020FA04F001FA02F340EA030021FA04F301
:1002C00045EA030130BDC4F10C04C4F1200220FA58
:1002D00002F001FA04F340EA0300294630BD21FA96
:1002E00004F0294630BD94F0000F83F4801306BF5C
:1002F00081F480110134013D4EE77FEA645C18BF50
:100300007FEA655C29D094EA050F08BF90EA020FE6
:1003100005D054EA000C04BF1946104630BD91EADE
:10032000030F1EBF0021002030BD5FEA545C05D1E1
:100330004000494128BF41F0004130BD14F5800420
:100340003CBF01F5801130BD01F0004545F0FE4194
:1003500041F470014FF0000030BD7FEA645C1ABFC9
:10036000194610467FEA655C1CBF0B46024650EA00
:10037000013406BF52EA033591EA030F41F400212C
:1003800030BD00BF90F0000F04BF0021704730B5B2
:100390004FF4806404F132044FF000054FF0000187
:1003A00050E700BF90F0000F04BF0021704730B548
:1003B0004FF4806404F1320410F0004548BF40421D
:1003C0004FF000013EE700BF42004FEAE2014FEA72
:1003D00031014FEA02701FBF12F07F4393F07F4F4D
:1003E00081F06051704732F07F4208BF704793F050
:1003F0007F4F04BF41F40021704730B54FF4607463
:1004000001F0004521F000411CE700BF50EA010265
:1004100008BF704730B54FF000050AE050EA01020E
:1004200008BF704730B511F0004502D5404261EB7E
:1004300041014FF4806404F132045FEA915C3FF4BF
:10044000D8AE4FF003025FEADC0C18BF03325FEA5C
:10045000DC0C18BF033202EBDC02C2F1200300FA0D
:1004600003FC20FA02F001FA03FE40EA0E0021FA32
:1004700002F11444BDE600BF70B54FF0FF0C4CF420
:10048000E06C1CEA11541DBF1CEA135594EA0C0FD2
:1004900095EA0C0F00F0DEF82C4481EA030621EA0D
:1004A0004C5123EA4C5350EA013518BF52EA033548
:1004B00041F4801143F4801338D0A0FB02CE4FF0FA
:1004C0000005E1FB02E506F00042E0FB03E54FF02A
:1004D0000006E1FB03569CF0000F18BF4EF0010E22
:1004E000A4F1FF04B6F5007F64F5407404D25FEA1E
:1004F0004E0E6D4146EB060642EAC62141EA5551D1
:100500004FEAC52040EA5E504FEACE2EB4F1FD0C12
:1005100088BFBCF5E06F1ED8BEF1004F08BF5FEA90
:10052000500E50F1000041EB045170BD06F0004642
:1005300046EA010140EA020081EA0301B4EB5C04EF
:10054000C2BFD4EB0C0541EA045170BD41F48011E7
:100550004FF0000E013C00F3AB8014F1360FDEBF0C
:10056000002001F0004170BDC4F10004203C35DAE8
:100570000C341BDC04F11404C4F1200500FA05F36B
:1005800020FA04F001FA05F240EA020001F000420C
:1005900021F0004110EBD37021FA04F642EB060182
:1005A0005EEA430E08BF20EAD37070BDC4F10C04AC
:1005B000C4F1200500FA04F320FA05F001FA04F270
:1005C00040EA020001F0004110EBD37041F100015C
:1005D0005EEA430E08BF20EAD37070BDC4F1200567
:1005E00000FA05F24EEA020E20FA04F301FA05F2CF
:1005F00043EA020321FA04F001F0004121FA04F277
:1006000020EA020000EBD3705EEA430E08BF20EA46
:10061000D37070BD94F0000F0FD101F00046400080
:1006200041EB010111F4801F08BF013CF7D041EA02
:10063000060195F0000F18BF704703F00046520006
:1006400043EB030313F4801F08BF013DF7D043EAD7
:100650000603704794EA0C0F0CEA135518BF95EA8D
:100660000C0F0CD050EA410618BF52EA4306D1D114
:1006700081EA030101F000414FF0000070BD50EA33
:10068000410606BF1046194652EA430619D094EABD
:100690000C0F02D150EA013613D195EA0C0F05D1A7
:1006A00052EA03361CBF104619460AD181EA0301FB
:1006B00001F0004141F0FE4141F470014FF00000B3
:1006C00070BD41F0FE4141F4780170BD70B54FF04E
:1006D000FF0C4CF4E06C1CEA11541DBF1CEA1355CE
:1006E00094EA0C0F95EA0C0F00F0A7F8A4EB0504B0
:1006F00081EA030E52EA03354FEA013100F08880A7
:100700004FEA03334FF0805545EA131343EA12636F
:100710004FEA022245EA111545EA10654FEA002624
:100720000EF000419D4208BF964244F1FD0404F5DD
:10073000407402D25B084FEA3202B61A65EB030539
:100740005B084FEA32024FF480104FF4002CB6EBF6
:10075000020E75EB030E22BFB61A754640EA0C0076
:100760005B084FEA3202B6EB020E75EB030E22BFB6
:10077000B61A754640EA5C005B084FEA3202B6EBF7
:10078000020E75EB030E22BFB61A754640EA9C00B6
:100790005B084FEA3202B6EB020E75EB030E22BF86
:1007A000B61A754640EADC0055EA060E18D04FEA44
:1007B000051545EA16754FEA06164FEAC30343EAE4
:1007C00052734FEAC2025FEA1C1CC0D111F4801FB1
:1007D0000BD141EA00014FF000004FF0004CB6E7AA
:1007E00011F4801F04BF01430020B4F1FD0C88BF49
:1007F000BCF5E06F3FF6AFAEB5EB030C04BFB6EB54
:10080000020C5FEA500C50F1000041EB045170BD46
:100810000EF0004E4EEA113114EB5C04C2BFD4EB73
:100820000C0541EA045170BD41F480114FF0000EF7
:10083000013C90E645EA060E8DE60CEA135594EA73
:100840000C0F08BF95EA0C0F3FF43BAF94EA0C0F76
:100850000AD150EA01347FF434AF95EA0C0F7FF4EB
:1008600025AF104619462CE795EA0C0F06D152EA3F
:1008700003353FF4FDAE1046194622E750EA410623
:1008800018BF52EA43067FF4C5AE50EA41047FF434
:100890000DAF52EA43057FF4EBAE12E74FF0FF3C99
:1008A00006E000BF4FF0010C02E000BF4FF0010C6A
:1008B0004DF804CD4FEA410C7FEA6C5C4FEA430CE3
:1008C00018BF7FEA6C5C1BD001B050EA410C0CBF32
:1008D00052EA430C91EA030F02BF90EA020F002094
:1008E000704710F1000F91EA030F58BF994208BFFB
:1008F00090422CBFD8176FEAE37040F001007047B8
:100900004FEA410C7FEA6C5C02D150EA013C07D10E
:100910004FEA430C7FEA6C5CD6D152EA033CD3D059
:100920005DF8040B704700BF8446104662468C4653
:100930001946634600E000BF01B5FFF7B7FF002886
:1009400048BF10F1000F01BD4DF808EDFFF7F4FFAF
:100950000CBF012000205DF808FB00BF4DF808ED3A
:10096000FFF7EAFF34BF012000205DF808FB00BF5D
:100970004DF808EDFFF7E0FF94BF012000205DF87F
:1009800008FB00BF4DF808EDFFF7CEFF94BF012034
:1009900000205DF808FB00BF4DF808EDFFF7C4FF2D
:1009A00034BF012000205DF808FB00BF4FEA410280
:1009B000B2F1E04324BFB3F5001CDCF1FE5C0DD9BD
:1009C00001F0004C4FEAC0024CEA5070B2F1004F07
:1009D00040EB830008BF20F00100704711F0804F0A
:1009E00021D113F13872BCBF01F00040704741F4CF
:1009F00080114FEA5252C2F11802C2F1200C10FAD3
:100A00000CF320FA02F018BF40F001004FEAC123B6
:100A10004FEAD32303FA0CFC40EA0C0023FA02F35A
:100A20004FEA4303CCE77FEA625307D150EA013330
:100A30001EBF4FF0FE4040F44000704701F0004000
:100A400040F0FE4040F40000704700BF80F00040DE
:100A500002E000BF81F0004142001FBF5FEA410396
:100A600092EA030F7FEA226C7FEA236C6AD04FEA96
:100A70001262D2EB1363C1BFD218414048404140DB
:100A8000B8BF5B42192B88BF704710F0004F40F48D
:100A9000000020F07F4018BF404211F0004F41F4A9
:100AA000000121F07F4118BF494292EA030F3FD075
:100AB000A2F1010241FA03FC10EB0C00C3F1200388
:100AC00001FA03F100F0004302D5494260EB400017
:100AD000B0F5000F13D3B0F1807F06D340084FEA82
:100AE000310102F10102FE2A51D2B1F1004F40EB77
:100AF000C25008BF20F0010040EA030070474900DF
:100B000040EB0000013A28BFB0F5000FEDD2B0FA7B
:100B100080FCACF1080CB2EB0C0200FA0CF0AABF9E
:100B200000EBC25052421843BCBFD040184370473C
:100B300092F0000F81F4000106BF80F40000013242
:100B4000013BB5E74FEA41037FEA226C18BF7FEA19
:100B5000236C21D092EA030F04D092F0000F08BF5B
:100B60000846704790EA010F1CBF0020704712F042
:100B70007F4F04D1400028BF40F00040704712F181
:100B800000723CBF00F50000704700F0004343F0E6
:100B9000FE4040F4000070477FEA226216BF08461C
:100BA0007FEA23630146420206BF5FEA412390EADF
:100BB000010F40F4800070474FF0000304E000BFD5
:100BC00010F0004348BF40425FEA000C08BF704786
:100BD00043F0964301464FF000001CE050EA01024A
:100BE00008BF70474FF000030AE000BF50EA01025F
:100BF00008BF704711F0004302D5404261EB41014C
:100C00005FEA010C02BF84460146002043F0B64370
:100C100008BFA3F18053A3F50003BCFA8CF2083A95
:100C2000A3EBC25310DB01FA02FC634400FA02FC9E
:100C3000C2F12002BCF1004F20FA02F243EB0200A5
:100C400008BF20F00100704702F1200201FA02FC07
:100C5000C2F1200250EA4C0021FA02F243EB0200FA
:100C600008BF20EADC7070474FF0FF3C06E000BF91
:100C70004FF0010C02E000BF4FF0010C4DF804CD25
:100C80004FEA40024FEA41037FEA226C18BF7FEA35
:100C9000236C11D001B052EA530C18BF90EA010F37
:100CA00058BFB2EB030088BFC81738BF6FEAE170C6
:100CB00018BF40F0010070477FEA226C02D15FEA62
:100CC000402C05D17FEA236CE4D15FEA412CE1D0CE
:100CD0005DF8040B704700BF844608466146FFE795
:100CE0000FB5FFF7C9FF002848BF10F1000F0FBD77
:100CF0004DF808EDFFF7F4FF0CBF012000205DF870
:100D000008FB00BF4DF808EDFFF7EAFF34BF0120F4
:100D100000205DF808FB00BF4DF808EDFFF7E0FF8D
:100D200094BF012000205DF808FB00BF4DF808EDDE
:100D3000FFF7D2FF94BF012000205DF808FB00BF41
:100D40004DF808EDFFF7C8FF34BF012000205DF823
:100D500008FB00BF7BB972B90029BEBF00204FF06D
:100D6000004106E008BF00281CBF6FF000414FF0B3
:100D7000FF3000F057B8ADF1080C6DE904CE002942
:100D800009DB002B1ADB00F05FF8DDF804E0DDE999
:100D9000022304B07047404261EB4101002B1BDB92
:100DA00000F052F8DDF804E0DDE9022304B040422F
:100DB00061EB4101524263EB43037047524263EBE4
:100DC000430300F041F8DDF804E0DDE9022304B05C
:100DD000404261EB41017047524263EB430300F034
:100DE00033F8DDF804E0DDE9022304B0524263EB9E
:100DF0004303704753B94AB9002908BF00281CBFF4
:100E00004FF0FF314FF0FF3000F00CB8ADF1080C9F
:100E10006DE904CE00F018F8DDF804E0DDE9022306
:100E200004B07047704700BF034611F8012B03F868
:100E3000012B002AF9D17047034613F8012B002A31
:100E4000FBD1181A013870472DE9F04786468C46C9
:100E50000846089E154674461946002B40F0C2808D
:100E60008542B2FA82F245D94AB1C2F1200300FAB2
:100E700002FC2EFA03F3954043EA0C0C94404FEA2F
:100E8000154EA8B2BCFBFEF8230C0EFB18CC08FBD9
:100E900000F943EA0C43994528D9EB1808F1FF37CC
:100EA00004D2994502D9A8F102072B44A3EB090308
:100EB000A4B2B3FBFEFC0EFB1C330CFB00F044EAB7
:100EC0000344A04214D92C190CF1FF3304D2A042E0
:100ED00002D9ACF102032C44241A43EA07401EB1A4
:100EE000D440002334607360BDE8F0874746DDE7F7
:100EF0006346F1E792BB431B01214FEA154EAFB2A7
:100F0000B3FBFEFC200C0EFB1C330CFB07F840EA85
:100F10000343984562D9EB180CF1FF3004D2984591
:100F200002D9ACF102002B44A3EB0803A4B2B3FB3B
:100F3000FEFC0EFB1C330CFB07F744EA0344A742FC
:100F40004ED92C190CF1FF3304D2A74202D9ACF1CF
:100F500002032C44E41B43EA0040C0E7C2F1200333
:100F600020FA03F1954090402EFA03F303434FEA31
:100F7000154EAFB2B1FBFEFC0EFB1C10190C0CFBA6
:100F800007F841EA0041884504FA02F422D96918B9
:100F90000CF1FF3004D2884502D9ACF1020029449B
:100FA000A1EB08019BB2B1FBFEFC0EFB1C110CFB7C
:100FB00007F743EA01439F420ED9EB180CF1FF31CA
:100FC00004D29F4202D9ACF102012B44DB1B41EA5F
:100FD000004192E76046E3E76146F7E76046A3E732
:100FE0006346B7E7834206D916B9002108467BE776
:100FF000C6E900E0F9E7B3FA83F78FB9834201D37A
:10100000724508D8BEEB020460EB030301209C4646
:101010001EB9002168E73846FAE7C6E9004CF8E750
:10102000C7F1200CBB4022FA0CF41C432EFA0CF141
:1010300020FA0CF3B84001434FEA14490EFA07F5C1
:10104000B3FBF9F81FFA84FE09FB18300B0C08FB00
:101050000EFA43EA00439A4502FA07F240D9E31830
:1010600008F1FF3004D29A4502D9A8F102002344C6
:10107000A3EB0A0389B2B3FBF9F809FB183308FBA9
:101080000EFE41EA03418E452CD9611808F1FF3369
:1010900004D28E4502D9A8F10203214443EA00405C
:1010A000A0FB0298A1EB0E014145CE46434602D378
:1010B00006D14D4504D2B9EB020E68EB04030138AA
:1010C000002EA6D0B5EB0E0261EB030101FA0CFC79
:1010D00022FA07F34CEA0303F940C6E9003198E726
:1010E0004046C5E74346D9E72DE9F04F864895B01D
:1010F00016F037FE854816F034FE854816F031FEAE
:10110000844D284619F03CFD50B12A69A96813683E
:1011100043F0807313600B687F4A18212846984774
:101120007E4819F02DFD002003F06EFC002840F0F1
:10113000E2807B4E0FCE03AC0FC4336823600123E3
:1011400000937849784B022203A804F07DF8064604
:10115000002840F0D0801AF0AEF84FF47A72A0FB6D
:10116000024302FB0131E40B44EA4144CF0BB24697
:101170004FF0000B6D4E6E493068FFF76DFC6D4906
:101180008046FFF7DDFD00B1D8464FF07E53736017
:101190004FF08043C6F80080B360DFF8808140469E
:1011A00019F0EEFC00284ED0D8F808904221D9F86A
:1011B0000C30404698470321D9F8103008AA404621
:1011C00098470998FFF7EEF84DA3D3E90023FFF7FE
:1011D0007DFA804608988946FFF7E4F802460B46F8
:1011E00040464946FEF792FFFFF7E0FB30600B9860
:1011F000FFF7D8F842A3D3E90023FFF767FA804648
:101200000A988946FFF7CEF802460B464046494603
:10121000FEF77CFFFFF7CAFB70600D98FFF7C2F87E
:1012200037A3D3E90023FFF751FA80460C9889468B
:10123000FFF7B8F802460B4640464946FEF766FF00
:10124000FFF7B4FBB060DFF8F08098F8003073B1BE
:10125000002118220EA81AF01FF9384B0EA9CDE96B
:101260000F3600200C23ADF8443006F0A3FB2948CC
:1012700019F086FC68B198F800309BB32B691B68A5
:10128000DB01AB6854BFDB681B6922484FF08071FB
:10129000984764340AF1010A47F100071AF00BF885
:1012A0004FF47A72A0FB020302FB0131C30B43EA45
:1012B0004143E31A67EBD131012B71F10001FFF6D5
:1012C00059AF23EAE3764FF4004C40F2E7300021B7
:1012D0004FF47A720023C6FB0C01FFF78BFD19F067
:1012E00064FF47E7164B03FB0AF3B3F1333FD0D853
:1012F000AB685B69C9E715B0BDE8F08FAFF300805C
:101300000000000080842E41ADC90200D8C902004F
:10131000F9C9020048B9020001000A0028BA020017
:1013200060BD020030C0020028C00200252300205A
:10133000CDCCCC3D000020412423002068C0020019
:10134000CDCCCCCC000000002DE9F843D0E9073823
:10135000856903EB08042F34A5420F46164619D8B9
:10136000DFF86C80A3FB080117A3D3E90023FFF784
:1013700041FD0346601BA0FB080123F07F4412A33C
:10138000D3E90023FFF736FD20F07F403C6030605A
:10139000BDE8F883DFF838900BA3D3E90023A5FB61
:1013A0000901FFF727FD20F07F440A480A2106A320
:1013B000D3E90023E8FB0901FFF71CFD20F07F4083
:1013C0003C603060BDE8F8838D49FD1A07000000DD
:1013D00000CA9A3B00166BF1002800F032812DE91B
:1013E000F04FC34C94F85E30DA078DB000F16381A2
:1013F000627F94F8293004EB820204EB8303166ABF
:10140000DF6A0EB3354615F8020BC0F3801008F002
:1014100021F80368C6F802308388AB8033785B0616
:1014200006D50621284606F05DFC002800F045811F
:101430003D4615F8020BC0F3801008F00BF8036866
:10144000C7F802308388AB80337813F00E0F40F07A
:10145000908063691BB10C200DB0BDE8F08F08F0DF
:1014600093FC8146002800F0358108F099FC824603
:10147000002800F02C810AF0BFFD0546002800F08E
:101480002B81C06E4FF6FF73AB8405F1100B002863
:1014900000F0198105F1600205F15C0106F02EFCF7
:1014A000B5F8583023F4EF6323F0070343F48C734B
:1014B00043F00103A5F8583095F8373003F03F03A7
:1014C00063F07F0385F8373095F8723023F0070317
:1014D00085F8723095F83C3023F00F034FF0000888
:1014E00085F83C304FF4C023C5F86E312846C5E975
:1014F0001288C5F86C80A5F8708085F83980A5F849
:101500002A80C5F82E80C5F85080A5F84081A5F83E
:101510007481A5F86A810CF009FA85F84481C5F850
:1015200048910AF0E1FF95F87C3160F3020385F8F9
:101530007C310AF0DFFF95F87C3160F3C50385F854
:101540007C3195F8423168F3410385F8423105F169
:10155000C4000CF025F8C4E9159AC4F814B0C5E924
:10156000028885F800802D610FF030FB002840F0E4
:10157000A680237E0121C3F342030DF12B008DF8D9
:101580002B3006F057FD024600285CD03946304625
:101590000AF07CF95749584BB4F85C70A0FB010184
:1015A000C0184FF0000550A3D3E9002341F1070113
:1015B000C4E902552570FFF71DFC606007F00EFFBF
:1015C00000F109083FB9357805F00F05A5F10105CF
:1015D000B5FA85F56D09207E636865F3000010F0AB
:1015E0000105207636D0454A099200201060022578
:1015F000434A444F04930BAE019305920321CDE976
:101600000200069443460090089607972A460B95D9
:1016100007F0E6FD314608F039FCA0B93A490591DA
:101620004AF2D8330093CDE90300CDE901000797D2
:10163000089606944346012203210B9507F0B4FD5A
:101640002EE00AF0BFB86369002B3FF404AF0AF044
:101650008FF800E7294A2D48049303F247130694B4
:10166000029591211360A7FB000301FB0731254B75
:101670000793234B05934FF6FF73099202270393B9
:101680000BAE19A3D3E900230B970896FFF7B2FB23
:101690004346CDE900503A462846032107F0A0FD15
:1016A000314608F0F3FB0028CDD194F85E3043F0CA
:1016B000010384F85E300020CEE61220CCE60AF06A
:1016C00057F80320C8E605F16400E866E2E64846FC
:1016D00008F060FB0720BFE6504608F067FB48466D
:1016E00008F058FBF6E700BF8D49FD1A070000001F
:1016F0006818002000CA9A3B8C49FD1A5C1800202B
:1017000001B90100DD940100F5B50100002AE7846C
:1017100070B5037E8AB0C3F342030D46044601212F
:101720000DF1230016468DF8233006F083FC314678
:10173000024628460AF0AAF81F49204AA0FB0131B8
:10174000981841F107011AA3D3E90023FFF752FBD0
:1017500063689842054621D21B1A00220192184A5A
:101760000293184BA21AA3FB023202219209002312
:101770000A4409AE099114490591CDE903330321C7
:10178000D2B206960093184607F08AFD314608F05B
:101790007DFB38B9656000200AB070BDFBD9C21A64
:1017A0000023DBE70C200AB070BD00BFAFF3008060
:1017B0008D49FD1A0700000000CA9A3B8C49FD1AAA
:1017C00068180020ABAAAAAADD940100000000005E
:1017D0002DE9F04F05468BB08B460120022199463A
:1017E000144610F051FE002202218246012006F02C
:1017F000D5FA2F494FF4C072284606F05FFAC61C8E
:101800002C4B0093F6B201954B4632460121002045
:1018100007F0A0FD10F0FD0F42D1274BA4FB0348B9
:10182000204621A3D3E900234146FFF7E3FA0895B8
:1018300006956B680493214B20F07F47A7FB03318B
:10184000E01A1F4B07934FF007021E4B059302FB54
:1018500007114FF6FE7368EB010103934FF47A72A0
:101860000023FFF7C7FACDF800B0CDE901704B4671
:1018700032460121002007F097FC10F0FD0F0DD13A
:10188000BAF1000F02D10BB0BDE8F08F01220221A6
:1018900010460BB0BDE8F04F06F080BA00DEEFE76F
:1018A00000DEBAE7AFF300808D49FD1A07000000A3
:1018B000D0080020D5BE010000CA9A3B8D49FD1A10
:1018C000BDBE0100B1FF01002DE9F0418468A28C8A
:1018D0004FF6FF739A428CB000F08E80054620468A
:1018E0000CF076FA2B7D012B00F02781022B00F003
:1018F0001A81002B00F0F98094F84471002F40F019
:1019000015812B8AE68D94F93720CDE90A77002BD3
:1019100075D0002AC0F25B810023A4F87031AB7C43
:10192000A28D03F00303551C012BADB200F0D9804A
:10193000B4F87431002B00F00681AB4240F26081B4
:101940005B1B9BB2062BA4F874314FF000028CBFD6
:1019500000230123E2851F4694F83C2063F38202B2
:1019600084F83C2029460DF1270220460CF01AF895
:10197000743000F03F81B4F86E312BB1AB4240F2CD
:1019800017815B1BA4F86E31B4F86A312BB1AB42FE
:1019900040F205815B1BA4F86A31E58D17B9AE42B0
:1019A00000F0F4800135ADB294F8B53013F00106C3
:1019B00040D1DDE90A130A46002B40F0F7800029E8
:1019C00000F0E6801E461846A28C24690694CDE9F4
:1019D00003570332A84D0290CDE90016D2B201217F
:1019E0000020059507F05CFC10F0FD0F04D008F016
:1019F00077FA844240F015810CB0BDE8F081002AEE
:101A0000B8BF84F8B970AB7CA28D03F00303551CFA
:101A1000012BADB265D0B4F87031002B88D0AB4249
:101A200040F2F3805B1BA4F87031B4F87431002BE2
:101A300083D191E794F937206FF30003002A84F8EB
:101A4000B530C0F29B8094F85800C0F3C00100F09C
:101A500007000EF03FFF94F8582094F8593002F038
:101A600003012831C2F34002C900D14003F0030250
:101A70002832C3F34003D200DA40E38B03F23F1372
:101A8000B1F5A07F2CBF5B1803F5A073B2F5A07F62
:101A90002CBF9B1803F5A0730344784A78480721AC
:101AA000E3FB0021104672A3D3E90023FFF7A2F95C
:101AB000DDE90A1320F07F4260686260904235BF22
:101AC000161A801A002000260A46002B7FF47CAFED
:101AD00056EA010C7FF478AF002859D019461E460B
:101AE00072E70023A4F8743136E794F8723003F0FB
:101AF0001803182B7FF400AF218DB4F86C218B1DD7
:101B00009A42C4BF931F5B1AB4F86811CCBF9BB252
:101B10001346994200F09480A4F86831A4F86A3121
:101B2000A4F86E21E8E63D2784F844713946204642
:101B30000CB0BDE8F0410AF097BD0023A4F86E3167
:101B4000A4F86A31D8E6E28C052A97BF013240F248
:101B5000E2434FF4FA7392B203FB02F2B4F872312B
:101B600042F2107101FB0323013BB3FBF2F39BB282
:101B7000A4F87431002B7FF4E0AEEDE694F8590040
:101B8000012100F007000EF0A7FE64E73D460BE7D9
:101B9000002D3FD0002611463046334614E700237F
:101BA000A4F86A3120460BF08FFFF6E630460BE7CB
:101BB00008F03CF9014680B30023A4F86E31A38CF1
:101BC000C3801B230371006808F002F9DCE694F877
:101BD000B93043B3013B84F8B93004F1C40840463E
:101BE0000BF020FD90B340460BF01CFD90B300239A
:101BF000E38591E69DF8271020460AF035FDFBE6C7
:101C0000082120460AF030FDF6E63E2120460AF083
:101C10002BFDF1E6002FBDD1EEE60123A4F86E31D5
:101C2000B2E600DEE8E60AAA0BA92846FFF78CFB1D
:101C3000DDE90A231343D0D0237884F8B930CCE708
:101C4000B4F86E1100297FF457AE67E7FF200AF061
:101C5000CDFCC8E70246D4E9170106F067F8002872
:101C6000C5D194F83C301B0744BF238DE38553E670
:101C70008D49FD1A0700000015BF01008C49FD1AAF
:101C800000CA9A3B000000002DE9F04F87B0B0F881
:101C90004071BDF84C900091CDE90423B0F80431B7
:101CA000BDF840A01F44BFB20446A7EB090390F85B
:101CB0005800D4F8FC809EB2BDF844300193C0F3C4
:101CC000C001BDF84830039600F0070002930EF003
:101CD00001FEE58C052D40F2BE8015FB06F5ADB288
:101CE00040F2E24BBAF1050F40F2A98094F8592076
:101CF00094F8581002F003032833C2F34002DB00CB
:101D0000D34001F003022832B3F5A47FC1F34001B0
:101D10004FEAC20222FA01F238BF4FF4A473B2F5BF
:101D2000A47F2CBF9B1803F5A47303F2D5131844AA
:101D3000774A784B0721E0FB023118464FF09613A3
:101D4000E3619623238470A3D3E90023FFF752F8BD
:101D5000564620F07F4040F2E2430BFB05F103FBC7
:101D600006F64B1E3344B3FBF6F31FFA83FB06FB68
:101D70000BF3994260605D4653D26548591AA1FB46
:101D8000000161A3D3E90023FFF734F820F07F407E
:101D90008044B4F80421B4F84031A9EB07094D445C
:101DA000ADB213442B44A4F84031638D13441D4459
:101DB00094F837306585DB0955D100DE00273546BC
:101DC000019B2385029BA4F8723131462046A4F87A
:101DD00026A00BF013FE504B218D3344881DB3FB1E
:101DE000F6F39AB29042A4F86C2104D2C1F57F4177
:101DF000FA310A4492B2009BA4F8682113B100237F
:101E0000A4F8743143462A4639462046FFF7E0FCE1
:101E100094F8423143F0010384F8423107B0BDE841
:101E2000F08F3B48C91AA1FB000137A3D3E9002377
:101E3000FEF7E0FF20F07F40A8EB0008A9E74FF095
:101E400096130AF10106E36196232384B6B20A20B1
:101E50004FF4FA7381E7039B013515FB03F5ADB22F
:101E60004FF4FA7B3EE7216CA36C294F01FB023350
:101E7000039A01FB1233A3640023C4F8C0300EF0B0
:101E8000F9FE054694F8B800C0F342000EF0F4FEE7
:101E9000054406FB05F5214B1E4805F5742505F2A2
:101EA0003F25A3FB0535AD0CA36C25640BFB05FB9F
:101EB00072085B44963A934228BF1346C4E9112343
:101EC000049B40F2E24909FB03F307212365EBFB86
:101ED00007010DA3D3E90023FEF78CFF104B059AF1
:101EE000A8EB0008A3FB0230800A09FB00F0A0FB6E
:101EF000070105A3D3E90023FEF77CFF751B20F043
:101F00007F475DE7AFF300808D49FD1A07000000B1
:101F100000CA9A3B8C49FD1A7FC3C90183DE1B436B
:101F20005917B7D1000000002DE9F04F0D460968A0
:101F3000B0F82EC0D1F800900146144651F82EABEF
:101F400052F8086B8F788346D0F81E00BBF8221039
:101F50009BF81C80A4F808C09770DBF82A20626008
:101F600091B0DBF83A20C4F82220ADF83C109BF881
:101F70003E100E9084F8261010AB13E9030004F114
:101F800022020C90ADF834101046052106F052F8EC
:101F900094F8272000F03F0060F3050284F8272022
:101FA0009BF83F20C2F3040184F82810BBF83410DA
:101FB000E1820128C8F380180DD902F01F021B32FC
:101FC00002F01F020B2A06D889B2063989B240F600
:101FD0007A42914219D90021C9F8081094F82C20AE
:101FE00061F3000284F82C200125DBF80C408BF80B
:101FF00004505046594607F0DFFE206825712146FF
:1020000011B0BDE8F04F07F0E3BE2A68002151602F
:10201000BBF836202283E78ABBF832300A9340F2BD
:10202000E242304602FB07F70BF0FCFC9BF83F1046
:1020300096F8B800490961F3430086F8B8000EF03D
:1020400019FE0B9096F8B800C0F342000EF014FE93
:102050000B99084407FB00F0A74900F5742000F233
:102060003F20A1FB00107908800C96392063616342
:102070009BF8311040F2E24201FB02F26264BBF8CD
:102080003820A6F87221394630460BF0B7FC9B4A3F
:102090009B49C6F878113A44B2FBF7F290B2A6F821
:1020A0006C01218B01F1060C604504DDC1F57F4117
:1020B000FA31014488B25946A6F8680111F81C2F7C
:1020C000C907C2F3401200F10881BDF83410ABF823
:1020D00023100C988BF81E804FF48071CBF81F00F2
:1020E000ABF81C10E18AABF82610218BABF8281056
:1020F000B6F87211ABF82A1096F8B8100B92C1F32B
:1021000042018BF82C10304609F082FFA082ABF818
:102110000600D5F804805046594607F04DFEA38AC4
:102120000B9AA8F806301C23D8F800A088F80430D1
:10213000002A40F0BE8088F81C204146504607F037
:1021400047FE94F849A094F848200AF0070A02F0E4
:102150000702012150460B920EF0BEFB0B9A02F0D3
:1021600003032833C2F34002DB00D3400AF003022A
:102170002832B3F5A47FCAF3400A4FEAC20238BF3F
:102180004FF4A47322FA0AF2B2F5A47F2CBF9B1875
:1021900003F5A47303F2D513DFF868A10344804666
:1021A00059480721E3FB0A014FF09613C4E90333B2
:1021B0004FA3D3E90023FEF71DFE20F07F4070609F
:1021C000EB680A98226B40F2E24101FB003404F212
:1021D000B3440221A41A0120BF1A002205F0DEFD3B
:1021E000484609F003FDA4EB08040246A4FB0A01DB
:1021F00014463FA3D3E90023FEF7FCFDCDF804907D
:10220000AB684249009120F07F4AA21C363BD2B213
:1022100053440121002007F09DF801285FD099F870
:102220001830DB0751D4304609F0F2FE354BA7FBDE
:10223000039804462EA3D3E9002348464146FEF7FF
:10224000D9FD334BAD68334A079220F07F47A7FB97
:102250000331B9EB0300304B05934FF4F873069646
:10226000089373684FF0000BCDE903B34FF00703F9
:1022700003FB071168EB01014FF47A720023FEF7AC
:10228000B9FD0334363DE4B2CDE90170CDF800A0CC
:102290002B4622460121584606F086FF10F0FD0F1E
:1022A00023D101220221104611B0BDE8F04F05F004
:1022B00075BD94F8273043F0400384F82730201D83
:1022C0000DF06EFF0122208535E7002301220093E7
:1022D0001846114606F0FCFFA5E700DEF5E607F01C
:1022E000FFFD81459BD000DE99E700DED9E700BF06
:1022F0008D49FD1A0700000083DE1B437FC3C9011F
:10230000404B4C0000CA9A3B8C49FD1A3900020030
:102310008D49FD1A89FF0100B1FF01000000000096
:10232000F0B5C468636883B00546002B40D10FF058
:10233000D1FC00200FF0F2FC002108460FF0E0FC79
:102340000022252108200FF01DFD374B019301A825
:102350000FF004FD354940F25B600FF0B5FD237AC4
:10236000C3F3420262F30613237220460EF008FE06
:1023700027682E6838460EF065FA06446A6806F14A
:10238000090101200FF0C8FE0FF086FF204609F07A
:1023900039FC811C3246C9B238460EF055FA054662
:1023A00098B920460EF02AFA68B9002003B0F0BDB3
:1023B00093F82C309B07BAD01D4821460FF05EFCE5
:1023C0000FF02CFDF1E700DEEFE71A4A1A491B482F
:1023D00040F2114315F0D2FC194B0721A5FB030372
:1023E00001FB05310EA3D3E90023FEF703FD1549D8
:1023F0000246154815F0C2FC002585F31188BFF38D
:102400006F8F0323184602DF104821460FF036FC79
:102410000FF004FD6FF08B00C8E700BFAFF3008042
:1024200000CA9A3B00000000D6BE898E5555550063
:102430008909020040C502008CC5020044C40200A4
:102440008D49FD1ABCC5020090C50200850C020032
:102450002DE9F043C468A28A4FF6FF739A4283B015
:1024600000F0FF8006460EF0A5FF3389628B208CBA
:10247000A3831A4492B2104494F82730E28380B2C6
:10248000411C21845D064FF00001618304F12201AB
:1024900000F1A78003F03F000B4694F8281000904D
:1024A00004F129000DF034FE0546D4E90C31A26B8D
:1024B000A08BA36303FB0022E36B8A4294BF9B18AB
:1024C0005B188B4228BF0B46626C216CE3630A44A5
:1024D00094F849306264002294F82C10226494F835
:1024E0006220C3F3020363F3061112F0040284F8BE
:1024F0002C1000F087800FF0EDFB00200FF00EFC99
:10250000201D0FF02BFC2389A17A40F25B6043EA87
:1025100001410FF0D9FC28460EF0A8F92146584891
:102520000FF0ACFBA0890FF0EBFD94F8482094F875
:102530004900C2F3C003002102F0070200F00700C7
:102540000FF028FD20460EF0CFFFD4F8008037684A
:1025500040460EF077F90744726807F10901002040
:102560000FF0DAFD81460FF06BFE00200FF082FEC7
:10257000E36B94F8490003F12F02636C00F007004D
:10258000012103EB42050FF03BFC4D44054494F858
:10259000490000F00700022832D004280CBF4FF495
:1025A000BC73282301211D440FF02CFC28440FF09C
:1025B00039FEA18A03313A46C9B240460EF044F9C9
:1025C0000546B0B1B37A13F0020629D000252D4894
:1025D00021460FF053FB0FF021FC284603B0BDE865
:1025E000F0830A4603F03F03218D0DF0DDFD054623
:1025F0005BE720460EF002F9002839D10025ECE710
:102600001823CFE7D4E9130105F090FB00287FF4ED
:1026100072AF94F8623043F0040384F862306AE7E2
:10262000194A1A491A4840F2591315F0A7FB1948DC
:102630000721A5FB000301FB05310FA3D3E900230C
:10264000FEF7D8FB14490246144815F097FB86F3B1
:102650001188BFF36F8F0323184602DF6FF08B05DD
:10266000B5E70F4821460FF009FB0FF0D7FBC5E790
:1026700000DEC3E7AFF3008000CA9A3B0000000011
:102680000117020069090200C8C502008CC50200DA
:1026900044C402008D49FD1A1CC6020090C5020008
:1026A00089090200000000002DE9F0411446056987
:1026B000B9B9B5F90000297B714D80FB0101A0FB80
:1026C000050647F6FF72002305FB0161FEF742FB9A
:1026D0006C4A0023FEF73EFB206062600020BDE8EC
:1026E000F0810139062900F2C280DFE801F0040719
:1026F0000A4865686B00B5F90200DCE7B5F904002B
:10270000D9E7B5F90000297B5D4E80FB0101A0FBF4
:10271000060747F6FF72002306FB0171FEF71AFB5E
:10272000584A0023FEF716FBC4E90002B5F902007F
:10273000297B80FB0101A0FB060747F6FF720023FF
:1027400006FB0171FEF706FB4E4A0023FEF702FB73
:10275000C4E90202B5F90400297B80FB0101A0FB5A
:10276000060547F6FF72002306FB0151FEF7F2FA59
:10277000444A0023FEF7EEFA20616261AEE7B5F944
:1027800006302A8A83FB02523F4BA5FB035603FB0C
:102790000266284638A3D3E900233146FEF7DAFA69
:1027A0003A4A2060002328463146FEF7D3FA354ADC
:1027B0000023FEF7CFFA90E7B5F90830E1E7B5F965
:1027C0000A30DEE7B5F906702B8A2F4E87FB0373BC
:1027D000A7FB067806FB0388384627A3D3E9002326
:1027E0004146FEF7B7FA294A2060002338464146A1
:1027F000FEF7B0FA234A0023FEF7ACFA6260B5F99F
:1028000008702B8A87FB0373A7FB067806FB0388F7
:10281000384619A3D3E900234146FEF79BFA1B4A29
:10282000A060002338464146FEF794FA154A00237B
:10283000FEF790FAE260B5F90A302A8A83FB025269
:10284000A5FB065306FB023628460BA3D3E900235B
:102850003146FEF77FFA0D4A2061002328463146B3
:10286000FEF778FA074A0023FEF774FA85E76FF05F
:10287000850034E7AFF30080006BC53F5D050000C5
:102880003AA3950040420F00D8EF2F004CFF5900AB
:102890002DE9FF470546D0F8109090460C4621B927
:1028A0001AB9002004B0BDE8F08701230DF10E0233
:1028B0004021284617F06FFD0028F3D101230DF1C8
:1028C0000F027D21284617F066FD0028EAD1FCB9E9
:1028D000B8F1000FE5D099F80D20D8F80030072A9C
:1028E00000F25881102B00F0768100F36881013BE3
:1028F000072B00F27881072B00F27581DFE813F0D7
:102900006901670173015D017301730173016D0159
:102910006068FDF747FDB6A3D3E90023FDF7D6FEB7
:10292000064620680F46FDF73DFD02460B46304641
:102930003946FDF7EBFB9DF80E40AF4B9DF80FA01D
:10294000002206460F4604F0F004FEF71BF840B1E3
:10295000AA4B002230463946FEF700F8002840F026
:102960001381A64B002230463946FEF70BF840B1E2
:10297000A34B002230463946FDF7F0FF002840F017
:10298000FD809F4B002230463946FDF7FBFF40B1EA
:102990009C4B002230463946FDF7E0FF002840F00E
:1029A000E780984B002230463946FDF7EBFF40B1F7
:1029B000954B002230463946FDF7D0FF002840F005
:1029C000D180914B002230463946FDF7DBFF40B104
:1029D0008E4B002230463946FDF7C0FF002840F0FC
:1029E000BB808A4B002230463946FDF7CBFF40B111
:1029F000874B002230463946FDF7B0FF002840F0F3
:102A0000A580834B002230463946FDF7BBFF40B11D
:102A1000804B002230463946FDF7A0FF002840F0E9
:102A20008F807C4B002230463946FDF7ABFF38B132
:102A3000794B002230463946FDF790FF002879D1C6
:102A4000754B002230463946FDF79CFF38B1734B79
:102A5000002230463946FDF781FF002864D16F4BD4
:102A6000002230463946FDF78DFF38B16C4B00220D
:102A700030463946FDF772FF00284FD1684B0022DF
:102A800030463946FDF77EFF30B1664B00223046B6
:102A90003946FDF763FFD8BB624B0022304639460A
:102AA000FDF770FF78B344F00C044AF0040A0C20E0
:102AB00044F080048DF80FA08DF80E4089F80D00C9
:102AC000B8F1000F7FF407AF01230DF10E02402192
:102AD000284617F08FFC00287FF4E4AE4FF4E17035
:102AE00017F057FC9DF80F3003F00F038DF80F30EF
:102AF0004FF47A7300930DF10F0201237D212846D4
:102B000017F07FFCCEE60AF0FB0A04F07F04D1E761
:102B100044F00B044AF0040A0B20C9E744F00A040D
:102B20004AF0040A0A20C3E744F009044AF0040A00
:102B30000920BDE744F008044AF0040A0820B7E77A
:102B400044F007044AF0040A0720DEE744F00604D4
:102B50004AF0040A0620D8E744F005044AF0040AC3
:102B60000520D2E744F004044AF0040A0420CCE72C
:102B700044F003044AF0040A0320C6E744F00204C8
:102B80004AF0040A0220C0E744F001044AF0040AB3
:102B90000120BAE7022B1AD0042B1AD0012B0CBF4C
:102BA000022303239DF80E201B0122F0300203F0C4
:102BB000300313438DF80E3086E70223F2E7402BF3
:102BC0000DD0802B0DD0202B0DD10523EAE701235A
:102BD000E8E70023E6E70423E4E70323E2E706232C
:102BE000E0E70723DEE76FF085005BE6AFF30080E8
:102BF0000000000080842E410000E93F0000F93F02
:102C00000000094000001940000029400000394040
:102C10000000494000005940000069400000794030
:102C200000008940000099402DE9FF470546D0F893
:102C3000109090460C4621B91AB9002004B0BDE8A6
:102C4000F08701230DF10E024221284617F0A3FB65
:102C50000028F3D101230DF10F027D21284617F042
:102C60009AFB0028EAD1A4B9B8F1000FE5D0D8F852
:102C70000030022B00F0F780043B18BF01235B00FB
:102C80009DF80E2022F0300242EA03138DF80E3038
:102C90009BE06068FDF786FB75A3D3E90023FDF791
:102CA00015FD064620680F46FDF77CFB02460B46E5
:102CB00030463946FDF72AFA9DF80E406E4B9DF8D6
:102CC0000FA0002206460F4604F0F004FDF75AFE5E
:102CD00040B16A4B002230463946FDF73FFE0028DE
:102CE00040F0BB80654B002230463946FDF74AFE76
:102CF00040B1634B002230463946FDF72FFE0028D5
:102D000040F0A5805E4B002230463946FDF73AFE82
:102D100040B15C4B002230463946FDF71FFE0028CB
:102D200040F08F80574B002230463946FDF72AFE8F
:102D300038B1554B002230463946FDF70FFE0028CA
:102D400079D1514B002230463946FDF71BFE38B190
:102D50004E4B002230463946FDF700FE002864D174
:102D60004A4B002230463946FDF70CFE38B1484B3D
:102D7000002230463946FDF7F1FD00284FD1444B83
:102D8000002230463946FDF7FDFD30B1414B0022AF
:102D900030463946FDF7E2FDD8BB3E4B00223046B7
:102DA0003946FDF7EFFD78B344F00D044AF0020A0E
:102DB0000D2044F0C0048DF80FA08DF80E4089F866
:102DC0000E00B8F1000F7FF452AF01230DF10E0297
:102DD0004221284617F00EFB00287FF42FAF4FF456
:102DE000E17017F0D6FA9DF80F3003F00F038DF85D
:102DF0000F304FF47A7300930DF10F0201237D2100
:102E0000284617F0FEFA19E70AF0FD0A04F03F041D
:102E1000D1E744F00C044AF0020A0C20C9E744F060
:102E20000B044AF0020A0B20C3E744F00A044AF0FC
:102E3000020A0A20BDE744F009044AF0020A092008
:102E4000B7E744F008044AF0020A0820B1E744F06A
:102E500007044AF0020A0720D8E744F006044AF0C3
:102E6000020A0620D2E701230AE700BFAFF3008081
:102E70000000000080842E410000394000004940DD
:102E8000000059400000694000007940000089407E
:102E9000000099400000A9400129064B0649074857
:102EA0000CBF012200221A70054B08BF194614F00E
:102EB00058BF00BF242300204CC9020055C902009E
:102EC00044C9020008B5034814F04BFF024B00222E
:102ED0001A7008BD6BC902002423002011B10348F9
:102EE00014F03FBF024814F03CBF00BF85C9020088
:102EF000A1C90200014B1B68184700BFA0010020B8
:102F0000014B1860704700BFA001002030B585B0AC
:102F100004460D4610220021684618F0BDFA02232F
:102F20008DF802302A46044B01932146684613F07F
:102F30004BFD05B030BD00BFF52E010080B5054644
:102F40000E461746984613F0ADF9034618F082FC7A
:102F5000DFF81890044649F80030424630463946BA
:102F6000A84754F8090000F0C5FB00BF08000000A6
:102F70002DE9F047058B04462807904611D4022915
:102F800005F0070540F0CC80204614F01FFF78B113
:102F90000138218B042811D8DFE800F0C2106D85BC
:102FA000950001290CBF45F0100545F0200525834B
:102FB00088F31188BFF36F8FBDE8F08701F0070A2F
:102FC000AA4500F0A5800027B9463E46A368002B1D
:102FD00000F0BC8041F00801218388F31188BFF321
:102FE0006F8FA168002900F0BA800D68002900F0F9
:102FF000B680D1F80480334652462046C047002DA3
:1030000076D02B6829461D46F0E701F007035A1FCA
:10301000012A1BD8002221F00701062B276889B25C
:10302000C4E9002209D13B4603E0628B013262838E
:103030001B68002BF9D141F002012183204614F0D6
:10304000C5FE00287AD041F0200176E0042B0AD199
:1030500021F0070189B22183204614F0B7FE10B198
:1030600041F020012183218B01F0070AAA454FD0AE
:103070000027B946AAE7236921F0070141F00601BC
:10308000062DD3F8009021832DD1B9F1000F3FD048
:1030900041F00801218388F31188BFF36F8F3A490B
:1030A0002046C84729E021F00701236941F00401C7
:1030B00089B2042DD3F804902183E6D000273E4640
:1030C0004FF0040A82E721F00701236941F005016E
:1030D00089B2052DD3F808902183D6D000273E462B
:1030E0004FF0050A72E700273E464FF0060A6DE7EB
:1030F0002B4687E7B9F1000FD1D1EFF311882023D8
:1031000083F31288BFF36F8F238B23F0080323838D
:10311000258BEA062ED525F01003238305F007053D
:103120006669218B002EBFF670AF00232768C4E9C3
:10313000003321F0070141F001012183218B01F0CF
:10314000070AAA454FF000097FF440AF002F9CD03A
:1031500041F00801218388F31188BFF36F8F002F9E
:10316000C8D03D68394633465246204614F05AFED0
:103170002F46F4E7AB067FF51BAF25F02003238332
:1031800005F0070500E700BF517E0200014B036018
:103190000020704790C0020008B50348034A002190
:1031A000121A14F039FF08BD080600206C23002015
:1031B0000748084A084908B5121A14F02FFF0748B3
:1031C000074A0849BDE80840121A14F027BF00BF9B
:1031D0000000002004060020ACD202000000002005
:1031E00000000020ACD2020038B505460C4699B16B
:1031F000D1E901230F48096814F0B3FDD4E9042391
:10320000E1680D4814F0ADFDE1690C4814F0A9FD2A
:10321000A1690B4814F0A5FD012D05D1EFF305813F
:103220000848103914F09DFD21462846BDE8384075
:1032300011F0F2BF41CA020071CA0200A1CA020025
:10324000B1CA0200E0CA020030BFFFF7FDBF00BFF5
:103250002DE9F0410B4EDFF8308006EB0807CC1B60
:10326000054632460949204618F0EEF8A0194246B4
:103270000021083C18F010F96C6707F10800BDE860
:10328000F08100BF000000000400000058BD0200F3
:10329000054B5A699B689A421FBF044A536843F022
:1032A00080535360704700BFC422002000ED00E04F
:1032B0002DE9F843324D804632488946174614F0CE
:1032C00050FDAB6ADE0622D52F4814F04AFD1124CA
:1032D000AB6A1D0703D52D4814F043FD1224284D79
:1032E000AB6A980715D52A4814F03BFD6E6BAB6AA4
:1032F000190642D52748314614F033FDB9F1000FC5
:1033000003D0AB6A23F08003AB62132403E01024E4
:10331000DEE76FF015061A4DAB6ADA0703D51E48D3
:1033200014F01FFD1424AB6A9B0603D51B4814F050
:1033300018FD1524124B9A6AD50602D49A6A900792
:103340000AD55B68190507D54146304600F0B8FA42
:1033500010B180F309880224094B9A6A920642BF91
:103360005A6A22F400525A629A6A42F0FF029A6242
:1033700000233B702046BDE8F8836FF01506C4E7D4
:1033800000ED00E0F4CA02000BCB02003FCB0200CC
:1033900053CB02006CCB020083CB0200A3CB020014
:1033A00010B51D4C1D4814F0DCFCA36A990130D502
:1033B0001B4814F0D6FC1E20A36ADA0103D5194875
:1033C00014F0CFFC1F20144CA36A1B0303D516482E
:1033D00014F0C7FC2120A36A590303D5134814F045
:1033E000C0FC22200C4CA36A9A0303D5104814F0A9
:1033F000B8FC2320A36ADB0303D50E4814F0B1FC0C
:103400002420054A936A6FEA03436FEA13439362E9
:1034100010BD1D20D0E700BF00ED00E0D3CB0200BF
:10342000ECCB020000CC02001BCC02003ACC020024
:1034300060CC02007BCC020070B5244C06462448C8
:103440000D4614F08EFCA36AD90435D5214814F03A
:1034500088FC1720A36A1A0503D51F4814F081FCC5
:1034600018201A4CA36A9B050FD51C4814F079FC50
:10347000A16BA36A180407D5194814F072FC1EB199
:10348000A36A23F40043A3621920104CA36A5905D0
:1034900003D5144814F065FC1A20A36ADA050DD58B
:1034A000114814F05EFC1B20084A936A43F47F43E2
:1034B000936200232B7070BD1620CBE7A36A9B0498
:1034C000F2D50A4814F04DFC1C20EDE700ED00E0B9
:1034D000A7CC0200BECC02003FCB0200D0CC020041
:1034E000EACC020000CD02001CCD0200A3CB0200FA
:1034F0002DE9F0415B4B5F688AB00446C7F30806CC
:10350000002585F31188BFF36F8F02F07F43B3F17D
:103510007F4F06D102F00C03082B13D1524814F050
:1035200020FC00252C464FF00008F31E8DF8078084
:10353000092B00F28680DFE803F00A7A7E76848425
:103540008484848210074CBF0C460125EBE7474872
:10355000444E14F006FC8DF80780F36A9A0704D5F0
:10356000434814F0FEFB002330E0F36A002B01DA3D
:103570004048F6E7F36A5B00F5D53F4814F0F1FBED
:103580007369A26943F480737361BFF34F8FBFF314
:103590006F8F736932F8022C23F480737361BFF369
:1035A0004F8FBFF36F8F4DF602739A4209D0B36A03
:1035B000DBB253B30DF1070201212046FFF778FE7D
:1035C00033E021682D4814F0CCFB23689DF80720D8
:1035D000C2B902AE04F1200720686168324603C216
:1035E0000834BC421646F7D1099AB5B3C2F30801B4
:1035F00021B96FEA52226FEA4222099202A91846C3
:10360000FFF7F2FD0AB0BDE8F081B36A13F47F4F13
:1036100005D00DF107010120FFF70EFF05E0B36AA9
:10362000B3F5803F9FD3FFF7BBFE0346CEE70DF116
:1036300007020021C1E70DF107010020ECE7104867
:103640008FE7104B1049114817F4F87FA6F11002CC
:1036500018BF194614F085FB85E722F4FF7222F0AB
:103660000102CAE700ED00E063CD02008FCD020049
:10367000A7CD0200C9CD0200D8CD0200F8CD0200CE
:1036800015CE02004ACD020035CD02003ACE02002E
:10369000044B5A6942F010025A615A6922F008023A
:1036A0005A61704700ED00E0EFF30880EFF3098105
:1036B00001B57246FFF71CFF01BD00BF0B4880F348
:1036C000088810F0BBFB202080F3118808484FF4D5
:1036D0000461401880F30988EFF314800221084345
:1036E00080F31488BFF36F8F00F0B2F80048002019
:1036F000402E0020084B9B6883420BD1EFF30583DB
:1037000043B1064B5A6842F080525A605A6A22F41A
:1037100000425A6212F0CCBDC422002000ED00E04D
:1037200014498A684FF030001044EFF3098C80E8A8
:10373000F01F202080F31288BFF36F8F0E4F4FF0E1
:1037400000664A698A603E60506F0C4C2060906F42
:103750000023936780F3118804B5104600F014F934
:10376000BDE8044002F1300090E8F01F8CF30988B6
:1037700070470000C422002004ED00E0B00C0020DF
:103780001EF0040F0CBFEFF30880EFF3098081698E
:1037900011F8021C0229FFD001B5724614F040FC5A
:1037A00001BD00BF40B2002807DB044A41090123E4
:1037B00000F01F00834042F82130704700E100E034
:1037C00040B200280CDB4309064900F01F002033FB
:1037D0000122824041F82320BFF34F8FBFF36F8F48
:1037E000704700BF00E100E0054B420900F01F00F8
:1037F00053F82220012303FA00F01040704700BF65
:1038000000E100E040B20028A8BF00F1604001F1F3
:103810000101B8BF064B4FEA4111ACBF00F5614052
:1038200000F00F00C9B2B4BF195480F800137047FC
:1038300014ED00E0044B054A23F07F039360BFF3CF
:103840004F8FBFF36F8F70470000010000ED00E065
:1038500008B5FFF7EFFF0B4AD2F8883023F4700366
:10386000C2F88830EFF3148323F0040383F3148841
:10387000BFF36F8FFFF790FCFFF79AFC00F05AF848
:1038800011F092FD00ED00E042F8203C009B42F870
:103890001C3C0A49019B42F8183C029B42F8143C2C
:1038A00021F001014FF0807342F8043C42F8081CFB
:1038B0000023203A02658367704700BF3D2F010057
:1038C000094A0346906870B113F1160F406E05D097
:1038D000A0F140029A4205D8834203D2814228BF18
:1038E0000020704700207047C422002008B515460C
:1038F0000B4A0C4B9060426F1A600E4600F044F881
:103900002C4686F309880020034B98472046002167
:1039100000220023014C2047458002003D2F01007A
:10392000C4220020B00C0020014B10221A61704705
:1039300000ED00E0044800232021C2180133302BA1
:1039400082F80013F9D1704700E100E008B5EFF309
:103950000583064A103B02EBC30152F83300496865
:103960008847BDE80840FFF793BC00BF88BA020053
:10397000024B034A0348012100F076B800000420FE
:103980000000002090C00200426E054B403A1A60D1
:10399000044A4021C3E901121846012100F06EB823
:1039A000B40C002000000B15084AC2F898000B6800
:1039B00023F01F03034343F01003C2F89C308B68CD
:1039C00043F00103C2F8A030704700BF00ED00E0F3
:1039D0002DE9F043DFF8608085B00E461F460446AF
:1039E0004FF00009B14523DA6068D8B13FB1411EFC
:1039F00008421BD11F2819D92368194216D1236800
:103A0000019314F042FBA36803430393D8F890504A
:103A1000C5F30725D0B2013DA84207D801A9FFF799
:103A2000C3FF421C09F101090C34DBE76FF01502FA
:103A3000104605B0BDE8F08300ED00E0044B052220
:103A4000C3F89420BFF34F8FBFF36F8F704700BF51
:103A500000ED00E0BFF35F8F024B0022C3F894201B
:103A6000704700BF00ED00E010B5034C0123227841
:103A7000FFF7AEFF207010BD3123002008B50B4AC0
:103A800000231278FFF7A4FF10F1160F07D0084AA1
:103A90000021D2F89030C3F30723984200DB08BD21
:103AA000C2F89800C2F8A0100130F2E731230020DC
:103AB00000ED00E02DE9F043534B544CD3F8903027
:103AC0002568C3F307239D4285B000F29A80FFF773
:103AD000C1FF00200C2685421AD14D4C4D4F257058
:103AE0006846FFF753FBDFF82081DFF82C9106468C
:103AF0000025AE4213D1237843490020D1F890200D
:103B0000C2F30722934276DBFFF798FF002042E0E2
:103B1000616806FB0011FFF747FF0130DBE7009803
:103B200000EB05114FEA051CCB683B40B3F5000FD5
:103B300048D00AD8B3F5001F30D0B3F5800F36D087
:103B4000B3F5801F10D00135D3E7B3F1807F42D0A9
:103B5000B3F1007FF7D150F80C3088684A6814F050
:103B600094FA40F4802009E050F80C3088684A68E4
:103B700014F08BFA40F0885040F43020CDE9012356
:103B80000390D8F890302078C3F30723013B984284
:103B90002AD96FF0150005B0BDE8F08350F80C305D
:103BA00088684A6814F071FA40EA0900E6E750F8BC
:103BB0000C3088684A6814F068FA40F0C06040F43D
:103BC0000030DBE750F80C3088684A6814F05DFA82
:103BD00040F08270D2E750F80C3088684A6814F0E0
:103BE00054FA40F08870C9E701A9FFF7DDFE237899
:103BF00001332370A7E7C1F89830C1F8A000013362
:103C00007CE74FF0FF30C6E700ED00E09CC002000B
:103C1000312300200000F0FF0000081108B5024B1E
:103C20001B689847002008BDC00C0020034B044AC5
:103C30001860937843F0020393707047C00C002023
:103C4000A401002008B50649064821F00701C1F18A
:103C5000005202F5802214F045F8002008BD00BF94
:103C600065670020C40C002070B54169867A0B4D51
:103C7000044659B1437ADB0706D42C2303FB0653D1
:103C80005B6A1B689B689847002363612C20214670
:103C900006FB0050BDE8704017F0EAB8A40400200D
:103CA000024B2C2202FB0030704700BFA40400200E
:103CB000827A064B2C2101FB02339A6A1B7F1B334D
:103CC000801A23F00303B0FBF3F07047A404002034
:103CD00038B5074B827A2C2404FB02335B6AD3E9A4
:103CE00001240C601568FFF7E3FF04FB005038BDAA
:103CF000A40400202DE9F04385B0054668460391F1
:103D000090461C4617F0D9FADDE90067EFF31189F8
:103D1000202383F31288BFF36F8F6B8B002B41D06E
:103D20002A8B9A4225D900220023284611F0BCFC98
:103D30000446F0B189F31188BFF36F8F039B002B0A
:103D400041D032463B46684617F0DCFAA27A264B51
:103D50002C2101FB023320465B6A1B6803A91D6806
:103D6000DDE90023A847606170BB2046FFF77CFFB8
:103D700024E0698B4B1E6B8389F31188BFF36F8F2F
:103D80002B7F2A8BAC6A1B3323F00303521A02FBEE
:103D90000344154B154AEB1A9B105343A3722B7F18
:103DA000E372CBE789F31188BFF36F8F2346424656
:103DB000284611F079FC04460028BFD10024204693
:103DC00005B0BDE8F0836361012300252381039BD7
:103DD0006382E27A6560294604F1180017F05CFB03
:103DE00063692582E360EAE7A4040020A38B2EBA6E
:103DF00070B50D4C2C2500B970BD037A4668002BB8
:103E0000FAD0013BDBB20372002BF5D1C3604360F3
:103E1000837A05FB03431B6A13B198473046EAE7F0
:103E2000FFF722FFFAE700BFA4040020024B0122A3
:103E3000C3F840250020704700E0014020B1034B4B
:103E4000800143F001031847704700BF90BD020096
:103E500008B50B4816F094FE10B96FF0120008BDBB
:103E6000074816F08DFE0028F7D0064814F0E8F950
:103E70000028F4D1BDE80840034814F0E1B900BFC0
:103E800028B90200D0C00200C8C002000378012B8C
:103E900030B513D0022B27D07BB9194B0A4603F15A
:103EA000100453F8045B42F8045BA342F9D11B7879
:103EB000137043884B731B0A8B7330BD104B0A463B
:103EC00003F1100453F8045B42F8045BA342F9D1F8
:103ED0001B78137043684B73C3F307221B0CCB731F
:103EE0001B0A8A730B74E8E700F1100350F8042BE7
:103EF00041F8042B9842F9D103780B70DDE700BF3D
:103F000077CE020008B514F01DFA12F0B9F8044B90
:103F10001B680BB10A209847BDE8084012F0C4B8EE
:103F2000D00C002038B50446084814F0C9F80546FE
:103F300048B1631EDBB21F2B96BF054A0021D15C3E
:103F40000C3014F038F9284638BD00BF8005002039
:103F500088CE02000F2810B50CD80D280CD90A48BD
:103F600014F0AEF8044618B104210C3014F023F913
:103F7000204610BD1328F2D009B10448F0E7BDE88F
:103F800010400220FFF7CEBFD8050020FC0400201F
:103F900070B5C6683378B6F8014083B90F21204662
:103FA00001F092FCF378054650B90A4A118831B9FC
:103FB0006FEA04506FEA10501080074A137070BD0A
:103FC0004372012101F0ECFB2846BDE8704001F08E
:103FD000A1BB00BFF82200203223002010B5084CFE
:103FE0000146062294F86F0001F004FF38B994F8F6
:103FF0006F000449BDE81040052201F0FBBE10BD72
:10400000000000205DCE020010B5012104460C30F6
:1040100014F0F2F82146034A0078BDE8104000236E
:1040200014F051BAA4C1020010B5012104460C30AD
:1040300014F0E2F82146034A0078BDE81040062358
:1040400014F041BA74C1020010B5012104460C30CD
:1040500014F0D2F82146034A0078BDE8104002234C
:1040600014F031BA44C102002DE9F04788461646E3
:104070008246002872D0BFF35B8FDFF8E490002304
:1040800059E8004F49E80032002AF9D1BFF35B8FAD
:10409000002C63D02046FFF70BFE324D0C2303FBB0
:1040A000005027464388534511D0BFF35B8F59E832
:1040B000003F49E80072002AF9D1BFF35B8F002B63
:1040C0004CD01F463846BDE8F047FFF791BEA642E8
:1040D00008D0204613F0EFFF328AF16804F10C009B
:1040E00014F060F82046FFF7E3FD0C2606FB0050B5
:1040F0004368ABB1B8F1000F12D12046FFF7D8FDED
:1041000006FB005001214268D2E90003127A03F055
:104110001F06B1405B09DAB100EB830014F081F9AE
:104120002046FFF7C5FD0C2606FB00508368002BD8
:10413000C8D02046FFF7BCFD704305F8008020463C
:10414000FFF7B6FD06FB0055A86811F0DFFAB9E7E6
:10415000C94300EB830014F0CDF9E1E7BDE8F08737
:1041600048010020D40C00202DE9F8430C4611F042
:1041700087FFE368228A1978022964D0042905D0D0
:104180002046FFF735FE6FF0150405E0022A08D837
:104190002046FFF72DFE002411F086FF2046BDE8E3
:1041A000F88358783E2808D1032AF1D0DB78012B18
:1041B00001D00A2B47D1032604E014F020F906466B
:1041C000F0073ED504F10C05284614F02DF8012126
:1041D00007462846B4F8109014F006F80221284645
:1041E00014F00AF8804600783E2816D1E3681B7860
:1041F000012B31D00A2B2FD002251A4A1A491B480D
:1042000041F2F30313F0BAFD002383F31188BFF3E7
:104210006F8F0323184602DF04E014F0F0F8C107A3
:104220000546EAD5124A98F800000623214614F004
:104230004AF9AA0712D56369A4F8109013FA87F710
:10424000E760B307A7D521460A4813F03DFF0A49A6
:104250000A4816F0BAFE9EE70325E3E72046FFF77B
:10426000C7FDEEE7A8CE0200DCCE0200F5CE0200CC
:1042700014C102004C010020C401002008060020E7
:1042800070B5314813F035FF044600285AD000F1CC
:104290000C05284613F0B8FF022805D004282FD0BB
:1042A0002046FFF7A5FD21E0238A032BF8D904213E
:1042B000284613F0A1FFFF22438806882276228A2F
:1042C000C6F30B009A426083EAD10F2101F0FCFA99
:1042D00005460028E4D001F013FB320B207621467E
:1042E000284614F037FC284601F014FA174BD3F88F
:1042F0004C313BB3BDE870401549164816F065BE19
:104300002846022113F078FF054600783E2812D097
:1043100014F075F810F002060DD10F4A0F4910483D
:1043200040F6634313F02AFD86F31188BFF36F8FC5
:104330000323184602DF0B4A28780423214614F091
:10434000C2F8ADE770BD00BF4C01002000000020A6
:10435000C401002008060020A8CE020012CF0200EF
:10436000F5CE020054C10200094BBFF35B8F1A68FF
:10437000BFF35B8F02F00B02BFF35B8F53E8001FAC
:1043800043E800200028F9D1BFF35B8F704700BFDE
:10439000D400002010B5C1E900239DF808300B724D
:1043A0000C46FFF785FC034B0C2202FB00335C60DC
:1043B00010BD00BFD40C0020F8B502460B461048D3
:1043C00013F07EFE0446C0B104210C3013F0D9FE78
:1043D0002046FFF76DFC0B4D0C2707FB0050002615
:1043E00046802046FFF764FC07FB005086602046AD
:1043F000FFF75EFC07FB00556E602046F8BD00BF6E
:1044000054050020D40C0020034B0146D3F86C0166
:1044100082689268104700BF000000200148042114
:1044200013F0FFBFD40000200048704714CA0200F8
:10443000014811F05FBB00BFB401002070B5054614
:104440000C4659B94FF0FF304FF0FF31FFF7B4FF82
:10445000044618B96FF06805284670BD2046FFF77E
:1044600027FC164B0C2202FB0033A61830465D8059
:1044700013F0DAFE03280BD90321304613F0A3FE14
:104480000580238A033B83700121304613F0A3FE8D
:1044900040F635439D4208D12046FFF7B5FF05465B
:1044A00048B12046FFF7A4FCD6E70548214616F0A0
:1044B000D4FCFFF7BDFF0025CEE700BFD40C0020E1
:1044C0005401002038B502460B46244DD5F854114E
:1044D00009B9002038BD05F5987011F051F9002890
:1044E000F7D10022002305F5AA7011F0DDF804468B
:1044F00068B91B4A1B491C4840F6734313F03EFC45
:1045000084F31188BFF36F8F0323184602DFD5F8B9
:10451000480120B1FFF76CFC0023C5F84831204664
:1045200013F0FDFDC5F848012046FFF76DFF98B177
:104530000E4811F0EBF82046FFF7BAFB0C4B0C22AB
:1045400002FB00301F2140882246FFF78DFD2046E8
:10455000FFF74EFCFFF76CFF0120BBE700000020D7
:10456000A8CE020040CF0200F5CE020030010020AC
:10457000D40C00202DE9F04F064687B017460C46B4
:1045800069B94FF0FF304FF0FF31FFF715FF0446D8
:1045900060B96FF06805284607B0BDE8F08F887AEB
:1045A000FFF77EFB454B834240F0828001220021D1
:1045B000684616F06BFC2046FFF77AFBDFF800A197
:1045C0000C2303FB00A0C0F808D0204613F0A7FD81
:1045D00001463046FFF732FF054618B12046FFF787
:1045E00007FCD8E717F036F9364B1A58364B9A4283
:1045F00020D1DFF8D8B0364816F044FC00218146BF
:104600004FF4A020FFF75EFF804688B9314A324858
:104610004FF4F973594613F0B1FB3048314613F0AB
:10462000ADFB88F31188BFF36F8F0323184602DFB9
:104630004C45E0D14FF4A0220023684611F0A0F8C9
:10464000804698B14FF4FC73224A2549224813F062
:1046500095FB24484246314613F090FB002383F338
:104660001188BFF36F8F0323184602DF2046FFF740
:104670001FFB0C2358431AF80060AEB12046093ED8
:10468000FFF7B6FB092E0CD8DFE806F0150B0B0878
:10469000050B0B0B0B126FF00B057CE76FF00C0595
:1046A00079E76FF0040576E7002F97D03C6072E75A
:1046B0006FF015056FE76FF06E056CE7540500208D
:1046C000D40C002008000000700B002044CF020032
:1046D00054010020A8CE0200F5CE02004CCF02000B
:1046E0006CCF020075CF0200F7B50022114640F6EC
:1046F0000340FFF73FFF0446002853D1FFF734FE85
:10470000214601AA41F20300FFF734FF04460028C6
:1047100048D1019AB34DD168D1F80100D1F8051004
:1047200005F1780303C31046FFF762FB214601AA97
:1047300041F20100FFF71EFF044698BB0198C368D1
:104740005A7885F870205A88A5F872201A7985F869
:104750007120B3F80720A5F87420B3F80530A5F848
:104760007630FFF745FB214601AA41F20200FFF730
:1047700001FF0446B0B9019FFA6805F18006531C99
:10478000413218685968344603C4083393422646B8
:10479000F7D13846FFF72CFB95F87C30580604D447
:1047A0006FF01204204603B0F0BD01AA002142F2CE
:1047B0000300FFF7DFFE04460028F3D1019B8A4E79
:1047C000DA68D2F80100D2F8051003C61846FFF7E0
:1047D0000FFB214601AA42F20200FFF7CBFE04467E
:1047E0000028DFD1019CE368B3F8012091B249B100
:1047F000D97839B1A5F80421DA78114606F12800F4
:1048000016F044FB2046FFF7F3FA95F87C601F236F
:1048100016F02006A5F8203118D14FF0FF304FF0E8
:10482000FF31FFF7C9FD044600287DD002210C307E
:1048300013F0B2FC0123037046702146324640F665
:104840006D40FFF797FE04460028ABD195F89C30E9
:10485000190712D501AA002142F21C00FFF78AFEB7
:10486000044600289ED10198C368D3F80120D3F8EC
:104870000530C5E93823FFF7BBFA4FF0FF304FF0A2
:10488000FF31FFF799FD044600284DD008210C3078
:1048900013F082FC95F8D83095F8D92013F0020F68
:1048A00014BF2F230F2312F0090F18BF43F4006326
:1048B000002203701B0A43708270C2700271427141
:1048C0008271C271214642F20100FFF753FE044695
:1048D00000287FF467AF95F87C30B5F804119A068C
:1048E00025D4C9B901AA41F20500FFF743FE0446E9
:1048F00000287FF457AFB5F80431019C4BB9E36849
:10490000B3F80120A5F804219A883848114616F01A
:10491000BDFA2046FFF76CFA4FF0FF304FF0FF3141
:10492000FFF74AFD044638B96FF068043AE70029FA
:10493000F2D16FF0040435E708210C3013F02CFCA1
:10494000102303708823437002230022C3702023A6
:104950008270027142718271C371214640F601403A
:10496000FFF708FE044600287FF41CAF014601AAA9
:104970004FF60140FFF7FEFD044620BB0198FFF70C
:1049800037FA214601AA4FF60240FFF7F3FD04462D
:10499000C8B90198C368B3F80130A5F8C130FFF772
:1049A00027FA95F8C1305B070DD501AA21464FF6CD
:1049B0000340FFF7DFFD30B90198C3685B7885F8E5
:1049C000C030FFF715FA00F07FFB044600287FF4A3
:1049D000E9AE01F0E5FA044600287FF4E3AEFFF704
:1049E0001DFDDFE600000020D800002008010020A7
:1049F00010B5FFF779FE034B1B6813B1BDE81040FB
:104A0000184710BDEC0C002073B5254D0646D5F8AF
:104A10006C0116F0B5F800283BD06FF0020105F1EB
:104A2000D40013F067FD012113F0FBFC10EA010430
:104A300032D11C4B1E600A4605F5987016F026FA16
:104A400005F5AA7016F0CBF9174816F0E9FA1749E0
:104A5000154800946FF007034FF4966211F050F878
:104A60001349114816F007FBD5F86C01114983680A
:104A70001B689847044648B926B902B0BDE87040A3
:104A8000FFF732BE05F1C40011F034F8204602B041
:104A900070BD6FF01204F9E76FF07704F6E700BF1E
:104AA00000000020EC0C00200806002080230020DD
:104AB000BACF0200694101002DE9FF414D4BB0F82A
:104AC0000180198848F4704291424FF0000602BFFD
:104AD0001E80494B1E78C378012B08BF474B00F15D
:104AE0000404054620460CBF93F86F70002713F0AE
:104AF00025FC2146A8B102A813F015FCD5F8113009
:104B0000CDF80130B5F81530ADF805300127EB7858
:104B1000012B1CD01321404613F06DFE04B0BDE8FC
:104B2000F081384613F0E2FE0346006802909A884E
:104B30009B796868ADF80C208DF80E30A288A379B7
:104B40002F790090ADF804208DF80630DFE702A839
:104B5000FFF744FA04460028DCD00346B5F80120EC
:104B600023F8702B02989DF80E20BDF80C102067DA
:104B70009A719980B5F81730A4F88630B5F81930D5
:104B8000A4F88C30B5F81B30A4F88E30EB78E370C5
:104B90000022012B62721CD18DF80070BDF8042038
:104BA0009DF806300098A4F87B2084F87D30C4F886
:104BB000770000F045FB237A1049C3EBC3035A1872
:104BC000CB58C4F87E309388A4F88230937984F867
:104BD00084300721204600F0E3FD26B166720121F2
:104BE000204600F0DDFD204600F0BCFE204600F02F
:104BF00091FD93E7F82200203223002000000020DE
:104C000000B5C3681A7889B032B13C2A32D109B0F4
:104C10005DF804EB13F07ABC8DF80020B3F80120A6
:104C2000ADF80120DA788DF80320B3F80B20ADF849
:104C30001720B3F80D20ADF81920B3F80F20ADF808
:104C40001B205A7C8DF81D20586801901A899B7A88
:104C50008DF80A30094BADF8082068461A689B8821
:104C6000CDF80B20ADF80F30CDF81120ADF8153090
:104C7000FFF722FF09B05DF804FB00BF71CE020010
:104C800038B5032104460C3013F0B6FAE368057812
:104C9000B0F80100197840F6354398420AD0224610
:104CA000FFF7E2F935B1044810F030FDBDE83840B7
:104CB000FFF7BEBB38BD00BF3001002038B504216E
:104CC00004460C3013F098FA457801784088224663
:104CD000FFF7CAF935B1044810F018FDBDE83840B7
:104CE000FFF7A6BB38BD00BF3001002070B54FF004
:104CF000FF320D464FF0FF3300210646FFF72AF939
:104D0000044660B90A4A0B490B481A2313F036F8D7
:104D100084F31188BFF36F8F0323184602DF02214B
:104D200004F10C0013F038FA06704570204670BD8F
:104D3000C3CF020040CF0200F5CE0200F8B50A4D05
:104D4000EF7906460024E3B29F4202D86FF00100DB
:104D500007E02946304613F0C1FD0735631C08B152
:104D60002046F8BD1C46EEE70000002070B5144E4A
:104D700006223146044616F097FBE0B14FF0FF30B3
:104D80004FF0FF31FFF718FB0546B0B10622214670
:104D90000C3013F007FA0022294642F20500FFF713
:104DA000E9FB48B93346226843F86929A288B280F2
:104DB000012283F86820002070BD6FF06800FBE7D7
:104DC0006900002037B504460D4689B118492846C8
:104DD00013F084FD60B9174A2968C4EBC404A31812
:104DE0001151AA889A80AA799A71002003B030BD27
:104DF000684613F08AFA0028F8D16846FFF79EFF4C
:104E00000028F5DA0B4A00989DF80610C4EBC4049C
:104E1000A3181051BDF8040098809971002DE4D0BA
:104E200012592A609A88AA809B79AB71DDE700BF8E
:104E300064CE02000000002070B5044611B16FF08E
:104E4000150070BD80B11C4913F048FD60B92046C3
:104E5000FFF774FF002829DA2378012BEFD1A3791B
:104E600003F0C003C02BEAD1144DEB79012B20D005
:104E7000BFF35B8FD5F8D430BFF35B8FDB0707D46C
:104E8000002CDCD00C49204613F028FD0028D6D198
:104E9000EE792146731C3046EB71FFF793FF08B99A
:104EA0003046CEE7EB79013BEB71CAE76FF0770054
:104EB000C7E76FF00B00C4E764CE020000000020DB
:104EC0002DE9F3410446D8B101AA002141F20900BD
:104ED000FFF750FB054698B9019E1249D6F80C80A1
:104EE00008F101070622384616F0DEFA28B10E490D
:104EF0000622384616F0D8FA30B93046FEF778FF69
:104F0000002002B0BDE8F081D8F80130C4F80130CB
:104F1000BB88A4F8053030462570FEF769FF0120F4
:104F2000EFE700BF71CE02006BCE020007B5684606
:104F3000FFF7C6FF044BD87118B169460020FFF790
:104F400041FF03B05DF804FB00000020F0B5294DDF
:104F5000EE7989B0002E46D195F8C230DB0722D514
:104F60006A4631464FF60940FFF704FBD8B9DDF831
:104F700000C0DCF80C406378012B1E4628BF0126D8
:104F800073B1A31C02AA123418685968174603C7E4
:104F90000833A3423A46F7D1186838609B88BB8033
:104FA0006046FEF725FFEE71002416260127EB79F7
:104FB000E0B2834202D8B3B1002012E008AB06FB96
:104FC0000033694653F8182C33F8143CCDF801200F
:104FD000ADF805308DF80070FFF7F4FE01340028BD
:104FE000E5D009B0F0BD0021084609B0BDE8F040A9
:104FF000FFF722BF000000202DE9F0410D461746C3
:105000001C460646002856D0002B54D00A030378CD
:1050100008D56D074FD413F076FC002849D1012341
:1050200023700CE0A9072CD026480FB1AA0608D49B
:10503000C3EBC302825C012A12D002B922700020A5
:1050400037E090F8D820510638D5C3EBC302825C14
:10505000012A05D002B92270237843F00203DFE76A
:105060004FF00108072111FB03810144304613F082
:1050700042FCF0B984F80080002FE0D0AB06DED50A
:10508000EAE76A0711D50F49C3EBC3028E5C012E14
:1050900008D1072212FB0363194413F02CFC40B91A
:1050A0002670EBE7002EE9D1FAE713F02CFC012380
:1050B0002370BDE8F0816FF01500FAE76FF085000E
:1050C000F7E700BF0000002010B50A4CE3790BB1F0
:1050D000002010BDFFF72AFF0028FAD1E379002B4A
:1050E000F6D1FFF733FF0028F3D1601CBDE8104074
:1050F000FFF73CBE00000020F8B54568690506468C
:1051000035D4046914B115F0030330D0194F307849
:10511000FB7983422BD9C0EBC000174907223844E2
:1051200016F0C2F9A8B115F0030306D197F8702064
:10513000082A02D8B2689F2A19D915F0300F09D071
:10514000ACB1EA060AD405F46035B5F5603018BF95
:105150000120F8BDEB0601D4002CF4D1D6E90223DE
:105160009A4204D81F2A02D9B3F5804FEBD9002008
:10517000EFE700BF0000002064CE0200F7B5CDE9E4
:105180000001694642F208009DF8207016461D464F
:1051900013F0E9FB044668B97FB9BFF35B8F0C4B92
:1051A00053E8001F41F0040143E80012002AF7D140
:1051B000BFF35B8F204603B0F0BD694642F20900A1
:1051C000CDE9006513F0CFFB0028E6D00446F1E7F7
:1051D00028000020F8B50446164B14F8097B83F824
:1051E0006F7005460E4607221349204616F05CF9FB
:1051F00070B91249384600F0B9FD044610B96FF095
:105200000B00F8BD052100F0CBFA34600020F8E770
:105210002146384613F048FD40B92146287800F071
:10522000A5FD04460028EAD00621ECE76FF0150042
:10523000E7E700BF0000002064CE02005DCE020060
:1052400000487047180000202DE9F04F8B4ED0F831
:1052500010B089B09A460023BBEB030405463046E4
:1052600018BF0124039313F078FB0F4641079146C2
:1052700040F1E5802846FFF73FFF60B96FF0150465
:105280003846002340F20111994540F0E180204664
:1052900009B0BDE8F08F284613F04CFB804600288B
:1052A000ECD0A6F1AC0013F058FBC205C0F300230C
:1052B00000F1C880CDE90533CDF81B30AB686868D4
:1052C000ADF81030EB68ADF8123013F037FB8DF805
:1052D0001D00BFF35B8F56E8003F23F4807346E860
:1052E0000032002AF7D1BFF35B8F2A7806F8BC2C76
:1052F00006F8652C696822460DF11503A6F1BC007D
:10530000FFF77AFE04460028BAD1A6F1B303BBF139
:10531000000F11D02A69116846F8B31C9188998052
:1053200092799A716B689E0745D1980502D4BAF1BB
:10533000000F54D002230BE0514A116846F8B31C09
:105340009188927999809A716B689C07EDD05B4641
:105350008DF814304FF0FF304FF0FF31FFF72CF88D
:105360000446002871D00F2204A90C3012F01AFF55
:105370002146002242F20600FFF7FCF8044600280E
:105380007FF47EAFBBF1000F2DD06B68990736D14B
:105390003C48012113F05CFB039E0446002836D0F4
:1053A000002E3FF46DAF3046002100F0F9F9304691
:1053B00000F0B0F964E713F0100F0CBF01230423D1
:1053C0008DF814302B691A68CDF816209A88ADF83C
:1053D0001A209B798DF81C304FF00008BAE70323A0
:1053E0008DF81430F8E7129BCDF8008052464946FC
:1053F0003846FFF7C3FE04460028C6D040E72148E0
:1054000003A9FFF7E7FE04460028C1D038E716B12C
:10541000304600F07FF96A681B4812F0030218BF9B
:105420000122092113F0F9FA42460A2113F0F5FA94
:105430006A680C21C2F3800213F0EFFA20E76FF0E4
:105440000A041DE76FF077041AE76FF0680417E7A6
:1054500002888A4204D1426812B11278D20702D47B
:105460000133083010E70949094815F0DFFD4FF412
:1054700070220023064810F0E1FB08E7D40000206A
:1054800064CE02001800002028000020A38A020039
:105490003000002010B5184813F000FB174813F037
:1054A0005CFA0346DA05C0F3002023D5134813F055
:1054B00054FA830515D512491248072215F0F4FF56
:1054C00011490346087E93B91049052200F092FC69
:1054D000044630B10021417200F062F9204600F02C
:1054E00019F9BDE810400448002113F0B1BA0622B2
:1054F0002131EBE710BD00BF18000020280000207C
:1055000064CE020021000020000000205DCE0200D9
:1055100070B50C4B1C68054644B154F8143C143C5F
:1055200013B1697A284698476469F5E7064C074E37
:10553000B44200D370BD236813B1697A28469847F6
:105540001834F5E7240D002028BD020040BD0200FC
:1055500010B50446FEF7ACFB044901EB00112046F0
:1055600012F02DFFBDE81040FEF762BFF00C0020E6
:1055700070B5D1E9015600220446C1E9012206486E
:1055800015F06BFC3DB1314620462B466FF06D02A5
:10559000BDE87040184770BD8C04002070B505460A
:1055A0000F480022002310F0EBF8B8B90D4B1C682F
:1055B00034B154F80C3C143C03B198476469F7E7E4
:1055C000094C0A4EB44204D32846BDE8704010F09E
:1055D00091BAA36803B198471834F3E770BD00BFD0
:1055E00074040020240D002028BD020040BD0200EC
:1055F0002DE9F843DFF85480044620270025EFF317
:10560000118387F31288BFF36F8FE16929B983F3A0
:105610001188BFF36F8FBDE8F883206A0A68E261E2
:10562000814208BF226283F31188BFF36F8FD1E9F3
:1056300001694046C1E9015515F00FFC1EB1002279
:1056400049462046B047FEF7F3FED8E78C04002019
:105650000448B0F80431002B00F5847008BF002026
:10566000704700BF0000002030B5044616F0F2F885
:105670000D4A0D460D490858D2F8801088428BB06B
:1056800005D120460BB0BDE83040FFF7B1BF243450
:105690002146104615F099FC1DB16946204615F0CB
:1056A000A4FC0BB030BD00BF700B00200800000050
:1056B00038B5002204468A4202D10024204638BD73
:1056C00004F1C4030120BFF35B8F53E8005F002D9A
:1056D00004D143E8000CBCF1000FF6D1BFF35B8F9F
:1056E00002D0C8340244E6E7002CE6D0C4220021F0
:1056F000204615F0D1FE04F14000044915F096FC57
:10570000034904F1240015F044FCD7E7A55E01002D
:10571000078B020008B5C430BFF35B8F50E8003F31
:10572000013B40E80032002AF8D1BFF35B8F3BB960
:1057300004480FF0EBFFBDE80840034810F0DAB969
:1057400008BD00BF74040020E401002010B5044629
:1057500013F04EFA10F094FC104BD3F8241104F11E
:10576000B80249B9C4F8B810D3F8281189B9C3E907
:10577000492210F099FC06E08A4208D110F094FC0E
:105780002046FFF7C7FFBDE81040FEF751BE09688D
:10579000E7E70A60C3F82821EBE700BF000000201C
:1057A00070B5837A8B42044668D08172FBB913F0DE
:1057B0001FFAA37A012B1DD0072B5FD1304800219F
:1057C00010F0E4FF0023C4E90D33E378012B55D139
:1057D000A378012B04BF032384F8943004F1400024
:1057E0004FF42032BDE87040002310F0F3B9827A04
:1057F000012A08D1234D05F58476616961BBBDE8B6
:105800007040FEF715BE072AD8D0002A36D1013BDA
:10581000072B33D8DFE803F004171B1B1B173232AA
:1058200000F14005284615F00DFC20460121FFF748
:105830001BFF204613F085F928460022BDE8704082
:10584000002310F0FBB9437A0BB1FFF761FE20464D
:10585000BDE87040FFF75EBFA2690B6863619142CB
:1058600008BFA3612046FFF783FEB5F80431002B83
:1058700014BF304600200FF049FFBEE770BD00BFE7
:10588000F401002000000020F8B5074609480D4645
:10589000164613F0ADF9044650B183781F4203D188
:1058A000BDE8F840FFF736BF3146A8472046F7E786
:1058B000F8BD00BFA8060020024900220120FFF722
:1058C000E3BF00BFC78A020038B505460B480C4647
:1058D00013F08EF9034670B1827A012A02D0073A9A
:1058E000012A06D81A88AA4202D19A78144203D112
:1058F0001846FFF70FFF0023184638BDA806002002
:10590000034BC01A034BC0105843C0B2704700BFCE
:10591000A8060020295C8FC270B51C4614430546BA
:105920000E460AD015F096FF0B4908580B49D1F8DE
:105930008010884204BF002213460949002D14BF7D
:105940002846084612F0BCFB044618B1711D0C3005
:1059500012F017FC204670BD08000000700B0020FC
:10596000A404002010B50446054810F0C3F82046F2
:1059700000F0CEFB2046BDE81040FFF7C9BD00BFD8
:10598000D40100202DE9F04F87B000230393059345
:10599000AC4B5A8B32B1AC4DD5F8244134B907B079
:1059A000BDE8F08F1B68002BF5D1F8E754F8B83943
:1059B00003B1B83BA549002601E01C461346B5F8E3
:1059C0000421002A00F03B81D5F810214AB904F1E6
:1059D000B806002BE3D0D3F8B820002AEDD0B83AAF
:1059E000EBE70A68002AF2D0D4F8A420002AEED00F
:1059F000D4F8A820002AEAD0D4F8AC20002AE6D0B7
:105A0000A37A072B66D120469047002862D0BFF3C7
:105A10005B8FD4F8BC30BFF35B8F022B5ADC20467F
:105A200013F0E6F804460028B9D0A37A072B40F01B
:105A3000FD80D4F8A430B5F8041104AA2046984794
:105A40000746002800F0D280B5F80421049B9A4252
:105A500006D30146D4F8A86005AB03AA2046B04798
:105A6000059B01933B8ADDE9039A002B00F0E1805E
:105A7000384612F0BAFC8046002840F0DD80B5F8C8
:105A80000431DFF8CCB1002B14BF584600200022AF
:105A900000230FF075FE78B96C48002200230FF048
:105AA00003FE064600283BD1B5F80431002B18BF91
:105AB0005E4630460FF02AFE6FF00B053846FEF7C3
:105AC00097F9B9F1000F00F08D8001992A46204620
:105AD000C84787E0D4F8B83004F1B802C6B9D5F8A1
